{
  "_format": "hh-sol-artifact-1",
  "contractName": "ExchangeOrderList",
  "sourceName": "contracts/market-core/ExchangeOrderList.sol",
  "abi": [
    {
      "anonymous": false,
      "inputs": [
        {
          "indexed": true,
          "internalType": "address",
          "name": "seller",
          "type": "address"
        },
        {
          "indexed": false,
          "internalType": "uint256",
          "name": "exchangeId",
          "type": "uint256"
        },
        {
          "indexed": false,
          "internalType": "address",
          "name": "sourceNftAddress",
          "type": "address"
        },
        {
          "indexed": false,
          "internalType": "uint256",
          "name": "sourceTokenId",
          "type": "uint256"
        },
        {
          "indexed": false,
          "internalType": "address",
          "name": "destinationNftAddress",
          "type": "address"
        },
        {
          "indexed": false,
          "internalType": "uint256",
          "name": "destinationTokenId",
          "type": "uint256"
        },
        {
          "indexed": false,
          "internalType": "uint256",
          "name": "price",
          "type": "uint256"
        }
      ],
      "name": "ExchangeOrderAdded",
      "type": "event"
    },
    {
      "anonymous": false,
      "inputs": [
        {
          "indexed": true,
          "internalType": "address",
          "name": "seller",
          "type": "address"
        },
        {
          "indexed": false,
          "internalType": "uint256",
          "name": "exchangeId",
          "type": "uint256"
        },
        {
          "indexed": false,
          "internalType": "address",
          "name": "sourceNftAddress",
          "type": "address"
        },
        {
          "indexed": false,
          "internalType": "uint256",
          "name": "sourceTokenId",
          "type": "uint256"
        },
        {
          "indexed": false,
          "internalType": "address",
          "name": "destinationNftAddress",
          "type": "address"
        },
        {
          "indexed": false,
          "internalType": "uint256",
          "name": "destinationTokenId",
          "type": "uint256"
        },
        {
          "indexed": false,
          "internalType": "uint256",
          "name": "price",
          "type": "uint256"
        },
        {
          "indexed": false,
          "internalType": "address",
          "name": "buyer",
          "type": "address"
        }
      ],
      "name": "ExchangeOrderCompleted",
      "type": "event"
    },
    {
      "anonymous": false,
      "inputs": [
        {
          "indexed": true,
          "internalType": "address",
          "name": "seller",
          "type": "address"
        },
        {
          "indexed": false,
          "internalType": "uint256",
          "name": "exchangeId",
          "type": "uint256"
        },
        {
          "indexed": false,
          "internalType": "address",
          "name": "sourceNftAddress",
          "type": "address"
        },
        {
          "indexed": false,
          "internalType": "uint256",
          "name": "sourceTokenId",
          "type": "uint256"
        },
        {
          "indexed": false,
          "internalType": "address",
          "name": "destinationNftAddress",
          "type": "address"
        },
        {
          "indexed": false,
          "internalType": "uint256",
          "name": "destinationTokenId",
          "type": "uint256"
        },
        {
          "indexed": false,
          "internalType": "uint256",
          "name": "price",
          "type": "uint256"
        }
      ],
      "name": "ExchangeOrderDeactive",
      "type": "event"
    },
    {
      "anonymous": false,
      "inputs": [
        {
          "indexed": true,
          "internalType": "address",
          "name": "provider",
          "type": "address"
        }
      ],
      "name": "Initialized",
      "type": "event"
    },
    {
      "anonymous": false,
      "inputs": [
        {
          "indexed": true,
          "internalType": "address",
          "name": "seller",
          "type": "address"
        },
        {
          "indexed": false,
          "internalType": "uint256",
          "name": "exchangeId",
          "type": "uint256"
        },
        {
          "indexed": false,
          "internalType": "address",
          "name": "sourceNftAddress",
          "type": "address"
        },
        {
          "indexed": false,
          "internalType": "uint256",
          "name": "sourceTokenId",
          "type": "uint256"
        },
        {
          "indexed": false,
          "internalType": "address",
          "name": "destinationNftAddress",
          "type": "address"
        },
        {
          "indexed": false,
          "internalType": "uint256",
          "name": "destinationTokenId",
          "type": "uint256"
        },
        {
          "indexed": false,
          "internalType": "uint256",
          "name": "price",
          "type": "uint256"
        }
      ],
      "name": "PriceChanged",
      "type": "event"
    },
    {
      "inputs": [
        {
          "internalType": "address[]",
          "name": "nftAddress",
          "type": "address[]"
        },
        {
          "internalType": "uint256[]",
          "name": "tokenId",
          "type": "uint256[]"
        },
        {
          "internalType": "uint256[]",
          "name": "amount",
          "type": "uint256[]"
        },
        {
          "internalType": "bytes",
          "name": "sellerData",
          "type": "bytes"
        },
        {
          "internalType": "address payable",
          "name": "seller",
          "type": "address"
        },
        {
          "internalType": "address",
          "name": "token",
          "type": "address"
        },
        {
          "internalType": "uint256",
          "name": "price",
          "type": "uint256"
        }
      ],
      "name": "addExchangeOrder",
      "outputs": [],
      "stateMutability": "nonpayable",
      "type": "function"
    },
    {
      "inputs": [],
      "name": "addressesProvider",
      "outputs": [
        {
          "internalType": "contract IAddressesProvider",
          "name": "",
          "type": "address"
        }
      ],
      "stateMutability": "view",
      "type": "function"
    },
    {
      "inputs": [
        {
          "internalType": "address",
          "name": "nftAddress",
          "type": "address"
        },
        {
          "internalType": "uint256",
          "name": "tokenId",
          "type": "uint256"
        },
        {
          "internalType": "address",
          "name": "seller",
          "type": "address"
        }
      ],
      "name": "checkDuplicate_ERC1155",
      "outputs": [
        {
          "internalType": "bool",
          "name": "",
          "type": "bool"
        }
      ],
      "stateMutability": "view",
      "type": "function"
    },
    {
      "inputs": [
        {
          "internalType": "address",
          "name": "nftAddress",
          "type": "address"
        },
        {
          "internalType": "uint256",
          "name": "tokenId",
          "type": "uint256"
        },
        {
          "internalType": "address",
          "name": "seller",
          "type": "address"
        }
      ],
      "name": "checkDuplicate_ERC721",
      "outputs": [
        {
          "internalType": "bool",
          "name": "",
          "type": "bool"
        }
      ],
      "stateMutability": "view",
      "type": "function"
    },
    {
      "inputs": [
        {
          "internalType": "uint256",
          "name": "exchangeId",
          "type": "uint256"
        },
        {
          "internalType": "address",
          "name": "buyer",
          "type": "address"
        }
      ],
      "name": "completeExchangeOrder",
      "outputs": [],
      "stateMutability": "nonpayable",
      "type": "function"
    },
    {
      "inputs": [
        {
          "internalType": "uint256",
          "name": "exchangeId",
          "type": "uint256"
        }
      ],
      "name": "deactiveExchangeOrder",
      "outputs": [],
      "stateMutability": "nonpayable",
      "type": "function"
    },
    {
      "inputs": [],
      "name": "getAllExchangeOrder",
      "outputs": [
        {
          "components": [
            {
              "internalType": "uint256",
              "name": "exchangeId",
              "type": "uint256"
            },
            {
              "internalType": "address",
              "name": "sourceNftAddress",
              "type": "address"
            },
            {
              "internalType": "uint256",
              "name": "sourceTokenId",
              "type": "uint256"
            },
            {
              "internalType": "uint256",
              "name": "sourceTokenAmount",
              "type": "uint256"
            },
            {
              "internalType": "bytes",
              "name": "sellerData",
              "type": "bytes"
            },
            {
              "internalType": "address",
              "name": "destinationNftAddress",
              "type": "address"
            },
            {
              "internalType": "uint256",
              "name": "destinationTokenId",
              "type": "uint256"
            },
            {
              "internalType": "uint256",
              "name": "destinationTokenAmount",
              "type": "uint256"
            },
            {
              "internalType": "address payable",
              "name": "seller",
              "type": "address"
            },
            {
              "internalType": "address",
              "name": "buyer",
              "type": "address"
            },
            {
              "internalType": "address",
              "name": "token",
              "type": "address"
            },
            {
              "internalType": "uint256",
              "name": "price",
              "type": "uint256"
            },
            {
              "internalType": "bool",
              "name": "isActive",
              "type": "bool"
            },
            {
              "internalType": "uint256",
              "name": "sellTime",
              "type": "uint256"
            },
            {
              "internalType": "uint256",
              "name": "buyTime",
              "type": "uint256"
            }
          ],
          "internalType": "struct DataTypes.ExchangeOrder[]",
          "name": "",
          "type": "tuple[]"
        }
      ],
      "stateMutability": "view",
      "type": "function"
    },
    {
      "inputs": [
        {
          "internalType": "address",
          "name": "nftAddress",
          "type": "address"
        }
      ],
      "name": "getAllExchangeOrderByNftAddress",
      "outputs": [
        {
          "components": [
            {
              "internalType": "uint256",
              "name": "exchangeId",
              "type": "uint256"
            },
            {
              "internalType": "address",
              "name": "sourceNftAddress",
              "type": "address"
            },
            {
              "internalType": "uint256",
              "name": "sourceTokenId",
              "type": "uint256"
            },
            {
              "internalType": "uint256",
              "name": "sourceTokenAmount",
              "type": "uint256"
            },
            {
              "internalType": "bytes",
              "name": "sellerData",
              "type": "bytes"
            },
            {
              "internalType": "address",
              "name": "destinationNftAddress",
              "type": "address"
            },
            {
              "internalType": "uint256",
              "name": "destinationTokenId",
              "type": "uint256"
            },
            {
              "internalType": "uint256",
              "name": "destinationTokenAmount",
              "type": "uint256"
            },
            {
              "internalType": "address payable",
              "name": "seller",
              "type": "address"
            },
            {
              "internalType": "address",
              "name": "buyer",
              "type": "address"
            },
            {
              "internalType": "address",
              "name": "token",
              "type": "address"
            },
            {
              "internalType": "uint256",
              "name": "price",
              "type": "uint256"
            },
            {
              "internalType": "bool",
              "name": "isActive",
              "type": "bool"
            },
            {
              "internalType": "uint256",
              "name": "sellTime",
              "type": "uint256"
            },
            {
              "internalType": "uint256",
              "name": "buyTime",
              "type": "uint256"
            }
          ],
          "internalType": "struct DataTypes.ExchangeOrder[]",
          "name": "",
          "type": "tuple[]"
        }
      ],
      "stateMutability": "view",
      "type": "function"
    },
    {
      "inputs": [
        {
          "internalType": "address",
          "name": "user",
          "type": "address"
        }
      ],
      "name": "getAllExchangeOrderByUser",
      "outputs": [
        {
          "components": [
            {
              "internalType": "uint256",
              "name": "exchangeId",
              "type": "uint256"
            },
            {
              "internalType": "address",
              "name": "sourceNftAddress",
              "type": "address"
            },
            {
              "internalType": "uint256",
              "name": "sourceTokenId",
              "type": "uint256"
            },
            {
              "internalType": "uint256",
              "name": "sourceTokenAmount",
              "type": "uint256"
            },
            {
              "internalType": "bytes",
              "name": "sellerData",
              "type": "bytes"
            },
            {
              "internalType": "address",
              "name": "destinationNftAddress",
              "type": "address"
            },
            {
              "internalType": "uint256",
              "name": "destinationTokenId",
              "type": "uint256"
            },
            {
              "internalType": "uint256",
              "name": "destinationTokenAmount",
              "type": "uint256"
            },
            {
              "internalType": "address payable",
              "name": "seller",
              "type": "address"
            },
            {
              "internalType": "address",
              "name": "buyer",
              "type": "address"
            },
            {
              "internalType": "address",
              "name": "token",
              "type": "address"
            },
            {
              "internalType": "uint256",
              "name": "price",
              "type": "uint256"
            },
            {
              "internalType": "bool",
              "name": "isActive",
              "type": "bool"
            },
            {
              "internalType": "uint256",
              "name": "sellTime",
              "type": "uint256"
            },
            {
              "internalType": "uint256",
              "name": "buyTime",
              "type": "uint256"
            }
          ],
          "internalType": "struct DataTypes.ExchangeOrder[]",
          "name": "",
          "type": "tuple[]"
        }
      ],
      "stateMutability": "view",
      "type": "function"
    },
    {
      "inputs": [
        {
          "internalType": "address",
          "name": "nftAddress",
          "type": "address"
        }
      ],
      "name": "getAllExchangeOrderIdListByNftAddress",
      "outputs": [
        {
          "internalType": "uint256[]",
          "name": "",
          "type": "uint256[]"
        }
      ],
      "stateMutability": "view",
      "type": "function"
    },
    {
      "inputs": [
        {
          "internalType": "address",
          "name": "user",
          "type": "address"
        }
      ],
      "name": "getAllExchangeOrderIdListByUser",
      "outputs": [
        {
          "internalType": "uint256[]",
          "name": "",
          "type": "uint256[]"
        }
      ],
      "stateMutability": "view",
      "type": "function"
    },
    {
      "inputs": [],
      "name": "getAvailableExchangeOrder",
      "outputs": [
        {
          "components": [
            {
              "internalType": "uint256",
              "name": "exchangeId",
              "type": "uint256"
            },
            {
              "internalType": "address",
              "name": "sourceNftAddress",
              "type": "address"
            },
            {
              "internalType": "uint256",
              "name": "sourceTokenId",
              "type": "uint256"
            },
            {
              "internalType": "uint256",
              "name": "sourceTokenAmount",
              "type": "uint256"
            },
            {
              "internalType": "bytes",
              "name": "sellerData",
              "type": "bytes"
            },
            {
              "internalType": "address",
              "name": "destinationNftAddress",
              "type": "address"
            },
            {
              "internalType": "uint256",
              "name": "destinationTokenId",
              "type": "uint256"
            },
            {
              "internalType": "uint256",
              "name": "destinationTokenAmount",
              "type": "uint256"
            },
            {
              "internalType": "address payable",
              "name": "seller",
              "type": "address"
            },
            {
              "internalType": "address",
              "name": "buyer",
              "type": "address"
            },
            {
              "internalType": "address",
              "name": "token",
              "type": "address"
            },
            {
              "internalType": "uint256",
              "name": "price",
              "type": "uint256"
            },
            {
              "internalType": "bool",
              "name": "isActive",
              "type": "bool"
            },
            {
              "internalType": "uint256",
              "name": "sellTime",
              "type": "uint256"
            },
            {
              "internalType": "uint256",
              "name": "buyTime",
              "type": "uint256"
            }
          ],
          "internalType": "struct DataTypes.ExchangeOrder[]",
          "name": "",
          "type": "tuple[]"
        },
        {
          "components": [
            {
              "internalType": "uint256",
              "name": "exchangeId",
              "type": "uint256"
            },
            {
              "internalType": "address",
              "name": "sourceNftAddress",
              "type": "address"
            },
            {
              "internalType": "uint256",
              "name": "sourceTokenId",
              "type": "uint256"
            },
            {
              "internalType": "uint256",
              "name": "sourceTokenAmount",
              "type": "uint256"
            },
            {
              "internalType": "bytes",
              "name": "sellerData",
              "type": "bytes"
            },
            {
              "internalType": "address",
              "name": "destinationNftAddress",
              "type": "address"
            },
            {
              "internalType": "uint256",
              "name": "destinationTokenId",
              "type": "uint256"
            },
            {
              "internalType": "uint256",
              "name": "destinationTokenAmount",
              "type": "uint256"
            },
            {
              "internalType": "address payable",
              "name": "seller",
              "type": "address"
            },
            {
              "internalType": "address",
              "name": "buyer",
              "type": "address"
            },
            {
              "internalType": "address",
              "name": "token",
              "type": "address"
            },
            {
              "internalType": "uint256",
              "name": "price",
              "type": "uint256"
            },
            {
              "internalType": "bool",
              "name": "isActive",
              "type": "bool"
            },
            {
              "internalType": "uint256",
              "name": "sellTime",
              "type": "uint256"
            },
            {
              "internalType": "uint256",
              "name": "buyTime",
              "type": "uint256"
            }
          ],
          "internalType": "struct DataTypes.ExchangeOrder[]",
          "name": "",
          "type": "tuple[]"
        }
      ],
      "stateMutability": "view",
      "type": "function"
    },
    {
      "inputs": [
        {
          "internalType": "address",
          "name": "nftAddress",
          "type": "address"
        }
      ],
      "name": "getAvailableExchangeOrderByNftAddress",
      "outputs": [
        {
          "components": [
            {
              "internalType": "uint256",
              "name": "exchangeId",
              "type": "uint256"
            },
            {
              "internalType": "address",
              "name": "sourceNftAddress",
              "type": "address"
            },
            {
              "internalType": "uint256",
              "name": "sourceTokenId",
              "type": "uint256"
            },
            {
              "internalType": "uint256",
              "name": "sourceTokenAmount",
              "type": "uint256"
            },
            {
              "internalType": "bytes",
              "name": "sellerData",
              "type": "bytes"
            },
            {
              "internalType": "address",
              "name": "destinationNftAddress",
              "type": "address"
            },
            {
              "internalType": "uint256",
              "name": "destinationTokenId",
              "type": "uint256"
            },
            {
              "internalType": "uint256",
              "name": "destinationTokenAmount",
              "type": "uint256"
            },
            {
              "internalType": "address payable",
              "name": "seller",
              "type": "address"
            },
            {
              "internalType": "address",
              "name": "buyer",
              "type": "address"
            },
            {
              "internalType": "address",
              "name": "token",
              "type": "address"
            },
            {
              "internalType": "uint256",
              "name": "price",
              "type": "uint256"
            },
            {
              "internalType": "bool",
              "name": "isActive",
              "type": "bool"
            },
            {
              "internalType": "uint256",
              "name": "sellTime",
              "type": "uint256"
            },
            {
              "internalType": "uint256",
              "name": "buyTime",
              "type": "uint256"
            }
          ],
          "internalType": "struct DataTypes.ExchangeOrder[]",
          "name": "",
          "type": "tuple[]"
        },
        {
          "components": [
            {
              "internalType": "uint256",
              "name": "exchangeId",
              "type": "uint256"
            },
            {
              "internalType": "address",
              "name": "sourceNftAddress",
              "type": "address"
            },
            {
              "internalType": "uint256",
              "name": "sourceTokenId",
              "type": "uint256"
            },
            {
              "internalType": "uint256",
              "name": "sourceTokenAmount",
              "type": "uint256"
            },
            {
              "internalType": "bytes",
              "name": "sellerData",
              "type": "bytes"
            },
            {
              "internalType": "address",
              "name": "destinationNftAddress",
              "type": "address"
            },
            {
              "internalType": "uint256",
              "name": "destinationTokenId",
              "type": "uint256"
            },
            {
              "internalType": "uint256",
              "name": "destinationTokenAmount",
              "type": "uint256"
            },
            {
              "internalType": "address payable",
              "name": "seller",
              "type": "address"
            },
            {
              "internalType": "address",
              "name": "buyer",
              "type": "address"
            },
            {
              "internalType": "address",
              "name": "token",
              "type": "address"
            },
            {
              "internalType": "uint256",
              "name": "price",
              "type": "uint256"
            },
            {
              "internalType": "bool",
              "name": "isActive",
              "type": "bool"
            },
            {
              "internalType": "uint256",
              "name": "sellTime",
              "type": "uint256"
            },
            {
              "internalType": "uint256",
              "name": "buyTime",
              "type": "uint256"
            }
          ],
          "internalType": "struct DataTypes.ExchangeOrder[]",
          "name": "",
          "type": "tuple[]"
        }
      ],
      "stateMutability": "view",
      "type": "function"
    },
    {
      "inputs": [
        {
          "internalType": "address",
          "name": "user",
          "type": "address"
        }
      ],
      "name": "getAvailableExchangeOrderByUser",
      "outputs": [
        {
          "components": [
            {
              "internalType": "uint256",
              "name": "exchangeId",
              "type": "uint256"
            },
            {
              "internalType": "address",
              "name": "sourceNftAddress",
              "type": "address"
            },
            {
              "internalType": "uint256",
              "name": "sourceTokenId",
              "type": "uint256"
            },
            {
              "internalType": "uint256",
              "name": "sourceTokenAmount",
              "type": "uint256"
            },
            {
              "internalType": "bytes",
              "name": "sellerData",
              "type": "bytes"
            },
            {
              "internalType": "address",
              "name": "destinationNftAddress",
              "type": "address"
            },
            {
              "internalType": "uint256",
              "name": "destinationTokenId",
              "type": "uint256"
            },
            {
              "internalType": "uint256",
              "name": "destinationTokenAmount",
              "type": "uint256"
            },
            {
              "internalType": "address payable",
              "name": "seller",
              "type": "address"
            },
            {
              "internalType": "address",
              "name": "buyer",
              "type": "address"
            },
            {
              "internalType": "address",
              "name": "token",
              "type": "address"
            },
            {
              "internalType": "uint256",
              "name": "price",
              "type": "uint256"
            },
            {
              "internalType": "bool",
              "name": "isActive",
              "type": "bool"
            },
            {
              "internalType": "uint256",
              "name": "sellTime",
              "type": "uint256"
            },
            {
              "internalType": "uint256",
              "name": "buyTime",
              "type": "uint256"
            }
          ],
          "internalType": "struct DataTypes.ExchangeOrder[]",
          "name": "",
          "type": "tuple[]"
        },
        {
          "components": [
            {
              "internalType": "uint256",
              "name": "exchangeId",
              "type": "uint256"
            },
            {
              "internalType": "address",
              "name": "sourceNftAddress",
              "type": "address"
            },
            {
              "internalType": "uint256",
              "name": "sourceTokenId",
              "type": "uint256"
            },
            {
              "internalType": "uint256",
              "name": "sourceTokenAmount",
              "type": "uint256"
            },
            {
              "internalType": "bytes",
              "name": "sellerData",
              "type": "bytes"
            },
            {
              "internalType": "address",
              "name": "destinationNftAddress",
              "type": "address"
            },
            {
              "internalType": "uint256",
              "name": "destinationTokenId",
              "type": "uint256"
            },
            {
              "internalType": "uint256",
              "name": "destinationTokenAmount",
              "type": "uint256"
            },
            {
              "internalType": "address payable",
              "name": "seller",
              "type": "address"
            },
            {
              "internalType": "address",
              "name": "buyer",
              "type": "address"
            },
            {
              "internalType": "address",
              "name": "token",
              "type": "address"
            },
            {
              "internalType": "uint256",
              "name": "price",
              "type": "uint256"
            },
            {
              "internalType": "bool",
              "name": "isActive",
              "type": "bool"
            },
            {
              "internalType": "uint256",
              "name": "sellTime",
              "type": "uint256"
            },
            {
              "internalType": "uint256",
              "name": "buyTime",
              "type": "uint256"
            }
          ],
          "internalType": "struct DataTypes.ExchangeOrder[]",
          "name": "",
          "type": "tuple[]"
        }
      ],
      "stateMutability": "view",
      "type": "function"
    },
    {
      "inputs": [],
      "name": "getAvailableExchangeOrderIdList",
      "outputs": [
        {
          "internalType": "uint256[]",
          "name": "",
          "type": "uint256[]"
        },
        {
          "internalType": "uint256[]",
          "name": "",
          "type": "uint256[]"
        }
      ],
      "stateMutability": "view",
      "type": "function"
    },
    {
      "inputs": [
        {
          "internalType": "address",
          "name": "nftAddress",
          "type": "address"
        }
      ],
      "name": "getAvailableExchangeOrderIdListByNftAddress",
      "outputs": [
        {
          "internalType": "uint256[]",
          "name": "",
          "type": "uint256[]"
        },
        {
          "internalType": "uint256[]",
          "name": "",
          "type": "uint256[]"
        }
      ],
      "stateMutability": "view",
      "type": "function"
    },
    {
      "inputs": [
        {
          "internalType": "address",
          "name": "user",
          "type": "address"
        }
      ],
      "name": "getAvailableExchangeOrderIdListByUser",
      "outputs": [
        {
          "internalType": "uint256[]",
          "name": "",
          "type": "uint256[]"
        },
        {
          "internalType": "uint256[]",
          "name": "",
          "type": "uint256[]"
        }
      ],
      "stateMutability": "view",
      "type": "function"
    },
    {
      "inputs": [
        {
          "internalType": "address",
          "name": "user",
          "type": "address"
        }
      ],
      "name": "getBoughtByUser",
      "outputs": [
        {
          "components": [
            {
              "internalType": "uint256",
              "name": "exchangeId",
              "type": "uint256"
            },
            {
              "internalType": "address",
              "name": "sourceNftAddress",
              "type": "address"
            },
            {
              "internalType": "uint256",
              "name": "sourceTokenId",
              "type": "uint256"
            },
            {
              "internalType": "uint256",
              "name": "sourceTokenAmount",
              "type": "uint256"
            },
            {
              "internalType": "bytes",
              "name": "sellerData",
              "type": "bytes"
            },
            {
              "internalType": "address",
              "name": "destinationNftAddress",
              "type": "address"
            },
            {
              "internalType": "uint256",
              "name": "destinationTokenId",
              "type": "uint256"
            },
            {
              "internalType": "uint256",
              "name": "destinationTokenAmount",
              "type": "uint256"
            },
            {
              "internalType": "address payable",
              "name": "seller",
              "type": "address"
            },
            {
              "internalType": "address",
              "name": "buyer",
              "type": "address"
            },
            {
              "internalType": "address",
              "name": "token",
              "type": "address"
            },
            {
              "internalType": "uint256",
              "name": "price",
              "type": "uint256"
            },
            {
              "internalType": "bool",
              "name": "isActive",
              "type": "bool"
            },
            {
              "internalType": "uint256",
              "name": "sellTime",
              "type": "uint256"
            },
            {
              "internalType": "uint256",
              "name": "buyTime",
              "type": "uint256"
            }
          ],
          "internalType": "struct DataTypes.ExchangeOrder[]",
          "name": "",
          "type": "tuple[]"
        }
      ],
      "stateMutability": "view",
      "type": "function"
    },
    {
      "inputs": [
        {
          "internalType": "address",
          "name": "user",
          "type": "address"
        }
      ],
      "name": "getBoughtIdListByUser",
      "outputs": [
        {
          "internalType": "uint256[]",
          "name": "",
          "type": "uint256[]"
        }
      ],
      "stateMutability": "view",
      "type": "function"
    },
    {
      "inputs": [
        {
          "internalType": "uint256",
          "name": "exchangeId",
          "type": "uint256"
        }
      ],
      "name": "getExchangeOrderById",
      "outputs": [
        {
          "components": [
            {
              "internalType": "uint256",
              "name": "exchangeId",
              "type": "uint256"
            },
            {
              "internalType": "address",
              "name": "sourceNftAddress",
              "type": "address"
            },
            {
              "internalType": "uint256",
              "name": "sourceTokenId",
              "type": "uint256"
            },
            {
              "internalType": "uint256",
              "name": "sourceTokenAmount",
              "type": "uint256"
            },
            {
              "internalType": "bytes",
              "name": "sellerData",
              "type": "bytes"
            },
            {
              "internalType": "address",
              "name": "destinationNftAddress",
              "type": "address"
            },
            {
              "internalType": "uint256",
              "name": "destinationTokenId",
              "type": "uint256"
            },
            {
              "internalType": "uint256",
              "name": "destinationTokenAmount",
              "type": "uint256"
            },
            {
              "internalType": "address payable",
              "name": "seller",
              "type": "address"
            },
            {
              "internalType": "address",
              "name": "buyer",
              "type": "address"
            },
            {
              "internalType": "address",
              "name": "token",
              "type": "address"
            },
            {
              "internalType": "uint256",
              "name": "price",
              "type": "uint256"
            },
            {
              "internalType": "bool",
              "name": "isActive",
              "type": "bool"
            },
            {
              "internalType": "uint256",
              "name": "sellTime",
              "type": "uint256"
            },
            {
              "internalType": "uint256",
              "name": "buyTime",
              "type": "uint256"
            }
          ],
          "internalType": "struct DataTypes.ExchangeOrder",
          "name": "",
          "type": "tuple"
        }
      ],
      "stateMutability": "view",
      "type": "function"
    },
    {
      "inputs": [
        {
          "internalType": "uint256[]",
          "name": "idList",
          "type": "uint256[]"
        }
      ],
      "name": "getExchangeOrderByIdList",
      "outputs": [
        {
          "components": [
            {
              "internalType": "uint256",
              "name": "exchangeId",
              "type": "uint256"
            },
            {
              "internalType": "address",
              "name": "sourceNftAddress",
              "type": "address"
            },
            {
              "internalType": "uint256",
              "name": "sourceTokenId",
              "type": "uint256"
            },
            {
              "internalType": "uint256",
              "name": "sourceTokenAmount",
              "type": "uint256"
            },
            {
              "internalType": "bytes",
              "name": "sellerData",
              "type": "bytes"
            },
            {
              "internalType": "address",
              "name": "destinationNftAddress",
              "type": "address"
            },
            {
              "internalType": "uint256",
              "name": "destinationTokenId",
              "type": "uint256"
            },
            {
              "internalType": "uint256",
              "name": "destinationTokenAmount",
              "type": "uint256"
            },
            {
              "internalType": "address payable",
              "name": "seller",
              "type": "address"
            },
            {
              "internalType": "address",
              "name": "buyer",
              "type": "address"
            },
            {
              "internalType": "address",
              "name": "token",
              "type": "address"
            },
            {
              "internalType": "uint256",
              "name": "price",
              "type": "uint256"
            },
            {
              "internalType": "bool",
              "name": "isActive",
              "type": "bool"
            },
            {
              "internalType": "uint256",
              "name": "sellTime",
              "type": "uint256"
            },
            {
              "internalType": "uint256",
              "name": "buyTime",
              "type": "uint256"
            }
          ],
          "internalType": "struct DataTypes.ExchangeOrder[]",
          "name": "",
          "type": "tuple[]"
        }
      ],
      "stateMutability": "view",
      "type": "function"
    },
    {
      "inputs": [
        {
          "internalType": "uint256",
          "name": "fromId",
          "type": "uint256"
        },
        {
          "internalType": "uint256",
          "name": "toId",
          "type": "uint256"
        }
      ],
      "name": "getExchangeOrderByRange",
      "outputs": [
        {
          "components": [
            {
              "internalType": "uint256",
              "name": "exchangeId",
              "type": "uint256"
            },
            {
              "internalType": "address",
              "name": "sourceNftAddress",
              "type": "address"
            },
            {
              "internalType": "uint256",
              "name": "sourceTokenId",
              "type": "uint256"
            },
            {
              "internalType": "uint256",
              "name": "sourceTokenAmount",
              "type": "uint256"
            },
            {
              "internalType": "bytes",
              "name": "sellerData",
              "type": "bytes"
            },
            {
              "internalType": "address",
              "name": "destinationNftAddress",
              "type": "address"
            },
            {
              "internalType": "uint256",
              "name": "destinationTokenId",
              "type": "uint256"
            },
            {
              "internalType": "uint256",
              "name": "destinationTokenAmount",
              "type": "uint256"
            },
            {
              "internalType": "address payable",
              "name": "seller",
              "type": "address"
            },
            {
              "internalType": "address",
              "name": "buyer",
              "type": "address"
            },
            {
              "internalType": "address",
              "name": "token",
              "type": "address"
            },
            {
              "internalType": "uint256",
              "name": "price",
              "type": "uint256"
            },
            {
              "internalType": "bool",
              "name": "isActive",
              "type": "bool"
            },
            {
              "internalType": "uint256",
              "name": "sellTime",
              "type": "uint256"
            },
            {
              "internalType": "uint256",
              "name": "buyTime",
              "type": "uint256"
            }
          ],
          "internalType": "struct DataTypes.ExchangeOrder[]",
          "name": "",
          "type": "tuple[]"
        }
      ],
      "stateMutability": "view",
      "type": "function"
    },
    {
      "inputs": [
        {
          "internalType": "address",
          "name": "seller",
          "type": "address"
        },
        {
          "internalType": "address",
          "name": "nftAddress",
          "type": "address"
        },
        {
          "internalType": "uint256",
          "name": "tokenId",
          "type": "uint256"
        }
      ],
      "name": "getLatestExchangeId_ERC1155",
      "outputs": [
        {
          "internalType": "bool",
          "name": "found",
          "type": "bool"
        },
        {
          "internalType": "uint256",
          "name": "id",
          "type": "uint256"
        }
      ],
      "stateMutability": "view",
      "type": "function"
    },
    {
      "inputs": [
        {
          "internalType": "address",
          "name": "nftAddress",
          "type": "address"
        },
        {
          "internalType": "uint256",
          "name": "tokenId",
          "type": "uint256"
        }
      ],
      "name": "getLatestExchangeId_ERC721",
      "outputs": [
        {
          "internalType": "bool",
          "name": "found",
          "type": "bool"
        },
        {
          "internalType": "uint256",
          "name": "id",
          "type": "uint256"
        }
      ],
      "stateMutability": "view",
      "type": "function"
    },
    {
      "inputs": [],
      "name": "getNumberOfExchangeOrder",
      "outputs": [
        {
          "internalType": "uint256",
          "name": "",
          "type": "uint256"
        }
      ],
      "stateMutability": "view",
      "type": "function"
    },
    {
      "inputs": [
        {
          "internalType": "address",
          "name": "provider",
          "type": "address"
        }
      ],
      "name": "initialize",
      "outputs": [],
      "stateMutability": "nonpayable",
      "type": "function"
    },
    {
      "inputs": [],
      "name": "nftList",
      "outputs": [
        {
          "internalType": "contract INFTList",
          "name": "",
          "type": "address"
        }
      ],
      "stateMutability": "view",
      "type": "function"
    },
    {
      "inputs": [
        {
          "internalType": "uint256",
          "name": "exchangeId",
          "type": "uint256"
        },
        {
          "internalType": "uint256",
          "name": "newPrice",
          "type": "uint256"
        }
      ],
      "name": "updatePrice",
      "outputs": [],
      "stateMutability": "nonpayable",
      "type": "function"
    }
  ],
  "bytecode": "0x608060405234801561001057600080fd5b50614835806100206000396000f3fe608060405234801561001057600080fd5b50600436106101c45760003560e01c806379b814e2116100f95780639b64fcb511610097578063c72c4d1011610071578063c72c4d10146103cf578063d2a930ed146103d7578063ec69cc5c146103f8578063f1e7cb431461040b576101c4565b80639b64fcb5146103a1578063b99341c2146103b4578063c4d66de8146103bc576101c4565b806388f8bba8116100d357806388f8bba8146103605780638d66c44c146103735780638ebc7ed21461037b578063960a74c61461038e576101c4565b806379b814e21461032557806382367b2d1461033857806384cc002e1461034b576101c4565b806356a435ae11610166578063656833941161014057806365683394146102c95780636a6f450e146102dc5780636bdebe5d146102ef57806372f461bc14610310576101c4565b806356a435ae1461028d5780635ad61c41146102ae5780635b547668146102b6576101c4565b8063307831f0116101a2578063307831f014610232578063461d096a146102525780634ea22e6d14610265578063538ee57514610278576101c4565b8063069a76b3146101c957806317a0eb98146101f257806326db023a14610212575b600080fd5b6101dc6101d7366004614318565b61041e565b6040516101e99190614716565b60405180910390f35b6102056102003660046140fe565b610597565b6040516101e9919061456d565b6102256102203660046140fe565b6107ee565b6040516101e991906145ae565b6102456102403660046141a1565b6108c0565b6040516101e991906145e6565b6102456102603660046141a1565b6109af565b6102056102733660046140fe565b610a91565b610280610ce1565b6040516101e99190614729565b6102a061029b3660046140fe565b610ce7565b6040516101e99291906145c1565b6102a0610e91565b6102a06102c43660046140fe565b610fad565b6102256102d73660046140fe565b61114c565b6102056102ea3660046140fe565b61121e565b6103026102fd3660046140fe565b61146e565b6040516101e9929190614580565b61032361031e366004614318565b611907565b005b61020561033336600461435f565b611b76565b61032361034636600461435f565b611ddb565b610353612025565b6040516101e99190614559565b61032361036e3660046141e2565b612034565b6103026121e3565b6102256103893660046140fe565b6125ef565b61032361039c366004614330565b61265b565b6103026103af3660046140fe565b6128f8565b610205612d91565b6103236103ca3660046140fe565b612f38565b6103536130bf565b6103ea6103e5366004614176565b6130d4565b6040516101e99291906145f1565b6102056104063660046142bd565b613172565b6103ea610419366004614136565b613375565b610426613ea6565b6002828154811061043357fe5b6000918252602091829020604080516101e081018252600f93909302909101805483526001808201546001600160a01b031684860152600280830154858501526003830154606086015260048301805485516101009482161594909402600019011691909104601f8101879004870283018701909452838252939491936080860193919290919083018282801561050b5780601f106104e05761010080835404028352916020019161050b565b820191906000526020600020905b8154815290600101906020018083116104ee57829003601f168201915b505050918352505060058201546001600160a01b03908116602083015260068301546040830152600783015460608301526008830154811660808301526009830154811660a0830152600a8301541660c0820152600b82015460e0820152600c82015460ff161515610100820152600d820154610120820152600e909101546101409091015292915050565b6001600160a01b038116600090815260076020526040902054606090819067ffffffffffffffff811180156105cb57600080fd5b5060405190808252806020026020018201604052801561060557816020015b6105f2613ea6565b8152602001906001900390816105ea5790505b50905060005b6001600160a01b0384166000908152600760205260409020548110156107e7576001600160a01b03841660009081526007602052604090208054600291908390811061065357fe5b90600052602060002001548154811061066857fe5b6000918252602091829020604080516101e081018252600f93909302909101805483526001808201546001600160a01b031684860152600280830154858501526003830154606086015260048301805485516101009482161594909402600019011691909104601f810187900487028301870190945283825293949193608086019391929091908301828280156107405780601f1061071557610100808354040283529160200191610740565b820191906000526020600020905b81548152906001019060200180831161072357829003601f168201915b505050918352505060058201546001600160a01b03908116602083015260068301546040830152600783015460608301526008830154811660808301526009830154811660a0830152600a8301541660c0820152600b82015460e0820152600c82015460ff161515610100820152600d820154610120820152600e909101546101409091015282518390839081106107d457fe5b602090810291909101015260010161060b565b5092915050565b6001600160a01b0381166000908152600a6020526040902054606090819067ffffffffffffffff8111801561082257600080fd5b5060405190808252806020026020018201604052801561084c578160200160208202803683370190505b50905060005b6001600160a01b0384166000908152600a60205260409020548110156107e7576001600160a01b0384166000908152600a6020526040902080548290811061089657fe5b90600052602060002001548282815181106108ad57fe5b6020908102919091010152600101610852565b6000805b6001600160a01b0383166000908152600960205260409020600101548110156109a2576001600160a01b0383811660009081526009602090815260408083208584529091529020546002805492881692909190811061091f57fe5b600091825260209091206001600f9092020101546001600160a01b031614801561098b57506001600160a01b038316600090815260096020908152604080832084845290915290205460028054869290811061097757fe5b90600052602060002090600f020160020154145b1561099a5760019150506109a8565b6001016108c4565b50600090505b9392505050565b6000805b6001600160a01b0383166000908152600860205260409020600101548110156109a2576001600160a01b03838116600090815260086020908152604080832085845290915290205460028054928816929091908110610a0e57fe5b600091825260209091206001600f9092020101546001600160a01b0316148015610a7a57506001600160a01b0383166000908152600860209081526040808320848452909152902054600280548692908110610a6657fe5b90600052602060002090600f020160020154145b15610a895760019150506109a8565b6001016109b3565b6001600160a01b0381166000908152600a6020526040902054606090819067ffffffffffffffff81118015610ac557600080fd5b50604051908082528060200260200182016040528015610aff57816020015b610aec613ea6565b815260200190600190039081610ae45790505b50905060005b6001600160a01b0384166000908152600a60205260409020548110156107e7576001600160a01b0384166000908152600a6020526040902080546002919083908110610b4d57fe5b906000526020600020015481548110610b6257fe5b6000918252602091829020604080516101e081018252600f93909302909101805483526001808201546001600160a01b031684860152600280830154858501526003830154606086015260048301805485516101009482161594909402600019011691909104601f81018790048702830187019094528382529394919360808601939192909190830182828015610c3a5780601f10610c0f57610100808354040283529160200191610c3a565b820191906000526020600020905b815481529060010190602001808311610c1d57829003601f168201915b505050918352505060058201546001600160a01b03908116602083015260068301546040830152600783015460608301526008830154811660808301526009830154811660a0830152600a8301541660c0820152600b82015460e0820152600c82015460ff161515610100820152600d820154610120820152600e90910154610140909101528251839083908110610cce57fe5b6020908102919091010152600101610b05565b60025490565b6001600160a01b0381166000908152600860205260409020600101546060908190819067ffffffffffffffff81118015610d2057600080fd5b50604051908082528060200260200182016040528015610d4a578160200160208202803683370190505b50905060005b6001600160a01b038516600090815260086020526040902060010154811015610db8576001600160a01b03851660009081526008602090815260408083208484529091529020548251839083908110610da557fe5b6020908102919091010152600101610d50565b506001600160a01b03841660009081526009602052604090206001015460609067ffffffffffffffff81118015610dee57600080fd5b50604051908082528060200260200182016040528015610e18578160200160208202803683370190505b50905060005b6001600160a01b038616600090815260096020526040902060010154811015610e86576001600160a01b03861660009081526009602090815260408083208484529091529020548251839083908110610e7357fe5b6020908102919091010152600101610e1e565b509092509050915091565b606080606060036001015467ffffffffffffffff81118015610eb257600080fd5b50604051908082528060200260200182016040528015610edc578160200160208202803683370190505b50905060005b600454811015610f1c576000818152600360205260409020548251839083908110610f0957fe5b6020908102919091010152600101610ee2565b5060065460609067ffffffffffffffff81118015610f3957600080fd5b50604051908082528060200260200182016040528015610f63578160200160208202803683370190505b50905060005b600654811015610fa3576000818152600560205260409020548251839083908110610f9057fe5b6020908102919091010152600101610f69565b5090925090509091565b6001600160a01b0381166000908152600b60205260409020600101546060908190819067ffffffffffffffff81118015610fe657600080fd5b50604051908082528060200260200182016040528015611010578160200160208202803683370190505b50905060005b6001600160a01b0385166000908152600b602052604090206001015481101561107e576001600160a01b0385166000908152600b60209081526040808320848452909152902054825183908390811061106b57fe5b6020908102919091010152600101611016565b506001600160a01b0384166000908152600c602052604090206001015460609067ffffffffffffffff811180156110b457600080fd5b506040519080825280602002602001820160405280156110de578160200160208202803683370190505b50905060005b6001600160a01b0386166000908152600c6020526040902060010154811015610e86576001600160a01b0386166000908152600c60209081526040808320848452909152902054825183908390811061113957fe5b60209081029190910101526001016110e4565b6001600160a01b038116600090815260076020526040902054606090819067ffffffffffffffff8111801561118057600080fd5b506040519080825280602002602001820160405280156111aa578160200160208202803683370190505b50905060005b6001600160a01b0384166000908152600760205260409020548110156107e7576001600160a01b03841660009081526007602052604090208054829081106111f457fe5b906000526020600020015482828151811061120b57fe5b60209081029190910101526001016111b0565b6001600160a01b0381166000908152600d6020526040902054606090819067ffffffffffffffff8111801561125257600080fd5b5060405190808252806020026020018201604052801561128c57816020015b611279613ea6565b8152602001906001900390816112715790505b50905060005b6001600160a01b0384166000908152600d60205260409020548110156107e7576001600160a01b0384166000908152600d60205260409020805460029190839081106112da57fe5b9060005260206000200154815481106112ef57fe5b6000918252602091829020604080516101e081018252600f93909302909101805483526001808201546001600160a01b031684860152600280830154858501526003830154606086015260048301805485516101009482161594909402600019011691909104601f810187900487028301870190945283825293949193608086019391929091908301828280156113c75780601f1061139c576101008083540402835291602001916113c7565b820191906000526020600020905b8154815290600101906020018083116113aa57829003601f168201915b505050918352505060058201546001600160a01b03908116602083015260068301546040830152600783015460608301526008830154811660808301526009830154811660a0830152600a8301541660c0820152600b82015460e0820152600c82015460ff161515610100820152600d820154610120820152600e9091015461014090910152825183908390811061145b57fe5b6020908102919091010152600101611292565b6001600160a01b0381166000908152600b60205260409020600101546060908190819067ffffffffffffffff811180156114a757600080fd5b506040519080825280602002602001820160405280156114e157816020015b6114ce613ea6565b8152602001906001900390816114c65790505b50905060005b6001600160a01b0385166000908152600b60205260409020600101548110156116bc576001600160a01b0385166000908152600b6020908152604080832084845290915290205460028054909190811061153d57fe5b6000918252602091829020604080516101e081018252600f93909302909101805483526001808201546001600160a01b031684860152600280830154858501526003830154606086015260048301805485516101009482161594909402600019011691909104601f810187900487028301870190945283825293949193608086019391929091908301828280156116155780601f106115ea57610100808354040283529160200191611615565b820191906000526020600020905b8154815290600101906020018083116115f857829003601f168201915b505050918352505060058201546001600160a01b03908116602083015260068301546040830152600783015460608301526008830154811660808301526009830154811660a0830152600a8301541660c0820152600b82015460e0820152600c82015460ff161515610100820152600d820154610120820152600e909101546101409091015282518390839081106116a957fe5b60209081029190910101526001016114e7565b506001600160a01b0384166000908152600c602052604090206001015460609067ffffffffffffffff811180156116f257600080fd5b5060405190808252806020026020018201604052801561172c57816020015b611719613ea6565b8152602001906001900390816117115790505b50905060005b6001600160a01b0386166000908152600c6020526040902060010154811015610e86576001600160a01b0386166000908152600c6020908152604080832084845290915290205460028054909190811061178857fe5b6000918252602091829020604080516101e081018252600f93909302909101805483526001808201546001600160a01b031684860152600280830154858501526003830154606086015260048301805485516101009482161594909402600019011691909104601f810187900487028301870190945283825293949193608086019391929091908301828280156118605780601f1061183557610100808354040283529160200191611860565b820191906000526020600020905b81548152906001019060200180831161184357829003601f168201915b505050918352505060058201546001600160a01b03908116602083015260068301546040830152600783015460608301526008830154811660808301526009830154811660a0830152600a8301541660c0820152600b82015460e0820152600c82015460ff161515610100820152600d820154610120820152600e909101546101409091015282518390839081106118f457fe5b6020908102919091010152600101611732565b6000546040805163f1be167960e01b8152905133926201000090046001600160a01b03169163f1be1679916004808301926020929190829003018186803b15801561195157600080fd5b505afa158015611965573d6000803e3d6000fd5b505050506040513d601f19601f82011682018060405250810190611989919061411a565b6001600160a01b0316146040518060400160405280601881526020017f43616c6c6572206973206e6f7420746865206d61726b65740000000000000000815250906119f05760405162461bcd60e51b81526004016119e79190614601565b60405180910390fd5b50611a1460028281548110611a0157fe5b90600052602060002090600f020161345e565b611a1d8161346b565b60028181548110611a2a57fe5b90600052602060002090600f020160080160009054906101000a90046001600160a01b03166001600160a01b03167fa96dbc0aa231e537ae54db76da3e003c3b79846db85ee7e5d7f2797c69fc609860028381548110611a8657fe5b90600052602060002090600f02016000015460028481548110611aa557fe5b90600052602060002090600f020160010160009054906101000a90046001600160a01b031660028581548110611ad757fe5b90600052602060002090600f02016002015460028681548110611af657fe5b90600052602060002090600f020160050160009054906101000a90046001600160a01b031660028781548110611b2857fe5b90600052602060002090600f02016006015460028881548110611b4757fe5b90600052602060002090600f0201600b0154604051611b6b96959493929190614732565b60405180910390a250565b606060025482106040518060400160405280601081526020017f52616e676520697320696e76616c69640000000000000000000000000000000081525090611bd15760405162461bcd60e51b81526004016119e79190614601565b506060611be96001611be38587613725565b90613767565b67ffffffffffffffff81118015611bff57600080fd5b50604051908082528060200260200182016040528015611c3957816020015b611c26613ea6565b815260200190600190039081611c1e5790505b509050835b848111611dd15760028181548110611c5257fe5b6000918252602091829020604080516101e081018252600f93909302909101805483526001808201546001600160a01b031684860152600280830154858501526003830154606086015260048301805485516101009482161594909402600019011691909104601f81018790048702830187019094528382529394919360808601939192909190830182828015611d2a5780601f10611cff57610100808354040283529160200191611d2a565b820191906000526020600020905b815481529060010190602001808311611d0d57829003601f168201915b505050918352505060058201546001600160a01b03908116602083015260068301546040830152600783015460608301526008830154811660808301526009830154811660a0830152600a8301541660c0820152600b82015460e0820152600c82015460ff161515610100820152600d820154610120820152600e90910154610140909101528251839083908110611dbe57fe5b6020908102919091010152600101611c3e565b5090505b92915050565b6000546040805163f1be167960e01b8152905133926201000090046001600160a01b03169163f1be1679916004808301926020929190829003018186803b158015611e2557600080fd5b505afa158015611e39573d6000803e3d6000fd5b505050506040513d601f19601f82011682018060405250810190611e5d919061411a565b6001600160a01b0316146040518060400160405280601881526020017f43616c6c6572206973206e6f7420746865206d61726b6574000000000000000081525090611ebb5760405162461bcd60e51b81526004016119e79190614601565b50611ee98160028481548110611ecd57fe5b90600052602060002090600f020161378c90919063ffffffff16565b60028281548110611ef657fe5b90600052602060002090600f020160080160009054906101000a90046001600160a01b03166001600160a01b03167fcec99e0910ec30b6d30ac69ba019fad58472a000c03fd18b55a776ed5c3b6b6a8360028581548110611f5357fe5b90600052602060002090600f020160010160009054906101000a90046001600160a01b031660028681548110611f8557fe5b90600052602060002090600f02016002015460028781548110611fa457fe5b90600052602060002090600f020160050160009054906101000a90046001600160a01b031660028881548110611fd657fe5b90600052602060002090600f02016006015460028981548110611ff557fe5b90600052602060002090600f0201600b015460405161201996959493929190614732565b60405180910390a25050565b6001546001600160a01b031681565b6000546040805163f1be167960e01b8152905133926201000090046001600160a01b03169163f1be1679916004808301926020929190829003018186803b15801561207e57600080fd5b505afa158015612092573d6000803e3d6000fd5b505050506040513d601f19601f820116820180604052508101906120b6919061411a565b6001600160a01b0316146040518060400160405280601881526020017f43616c6c6572206973206e6f7420746865206d61726b65740000000000000000815250906121145760405162461bcd60e51b81526004016119e79190614601565b50600254612120613ea6565b612131828b8b8b8b8b8b8b8b613794565b905061213c816138f4565b846001600160a01b03167fbde5e1f0b87080d6b7e0548c4f2f56389e92591e12fcb7ca08fb14d899919150838c60008151811061217557fe5b60200260200101518c60008151811061218a57fe5b60200260200101518e60018151811061219f57fe5b60200260200101518e6001815181106121b457fe5b6020026020010151896040516121cf96959493929190614732565b60405180910390a250505050505050505050565b606080606060036001015467ffffffffffffffff8111801561220457600080fd5b5060405190808252806020026020018201604052801561223e57816020015b61222b613ea6565b8152602001906001900390816122235790505b50905060005b6004548110156123eb5760008181526003602052604090205460028054909190811061226c57fe5b6000918252602091829020604080516101e081018252600f93909302909101805483526001808201546001600160a01b031684860152600280830154858501526003830154606086015260048301805485516101009482161594909402600019011691909104601f810187900487028301870190945283825293949193608086019391929091908301828280156123445780601f1061231957610100808354040283529160200191612344565b820191906000526020600020905b81548152906001019060200180831161232757829003601f168201915b505050918352505060058201546001600160a01b03908116602083015260068301546040830152600783015460608301526008830154811660808301526009830154811660a0830152600a8301541660c0820152600b82015460e0820152600c82015460ff161515610100820152600d820154610120820152600e909101546101409091015282518390839081106123d857fe5b6020908102919091010152600101612244565b5060065460609067ffffffffffffffff8111801561240857600080fd5b5060405190808252806020026020018201604052801561244257816020015b61242f613ea6565b8152602001906001900390816124275790505b50905060005b600654811015610fa35760008181526005602052604090205460028054909190811061247057fe5b6000918252602091829020604080516101e081018252600f93909302909101805483526001808201546001600160a01b031684860152600280830154858501526003830154606086015260048301805485516101009482161594909402600019011691909104601f810187900487028301870190945283825293949193608086019391929091908301828280156125485780601f1061251d57610100808354040283529160200191612548565b820191906000526020600020905b81548152906001019060200180831161252b57829003601f168201915b505050918352505060058201546001600160a01b03908116602083015260068301546040830152600783015460608301526008830154811660808301526009830154811660a0830152600a8301541660c0820152600b82015460e0820152600c82015460ff161515610100820152600d820154610120820152600e909101546101409091015282518390839081106125dc57fe5b6020908102919091010152600101612448565b6001600160a01b0381166000908152600d602090815260409182902080548351818402810184019094528084526060939283018282801561264f57602002820191906000526020600020905b81548152602001906001019080831161263b575b50505050509050919050565b6000546040805163f1be167960e01b8152905133926201000090046001600160a01b03169163f1be1679916004808301926020929190829003018186803b1580156126a557600080fd5b505afa1580156126b9573d6000803e3d6000fd5b505050506040513d601f19601f820116820180604052508101906126dd919061411a565b6001600160a01b0316146040518060400160405280601881526020017f43616c6c6572206973206e6f7420746865206d61726b657400000000000000008152509061273b5760405162461bcd60e51b81526004016119e79190614601565b50612769816002848154811061274d57fe5b90600052602060002090600f0201613cd190919063ffffffff16565b6001600160a01b0381166000908152600d602090815260408220805460018101825590835291200182905561279d8261346b565b600282815481106127aa57fe5b90600052602060002090600f020160080160009054906101000a90046001600160a01b03166001600160a01b03167fa50c7798dc51d280d055e33cd10b6c95b3636f9e4a5650f6a183755d1db69b96836002858154811061280757fe5b90600052602060002090600f020160010160009054906101000a90046001600160a01b03166002868154811061283957fe5b90600052602060002090600f0201600201546002878154811061285857fe5b90600052602060002090600f020160050160009054906101000a90046001600160a01b03166002888154811061288a57fe5b90600052602060002090600f020160060154600289815481106128a957fe5b90600052602060002090600f0201600b015460028a815481106128c857fe5b600091825260209091206009600f909202010154604051612019979695949392916001600160a01b031690614767565b6001600160a01b0381166000908152600860205260409020600101546060908190819067ffffffffffffffff8111801561293157600080fd5b5060405190808252806020026020018201604052801561296b57816020015b612958613ea6565b8152602001906001900390816129505790505b50905060005b6001600160a01b038516600090815260086020526040902060010154811015612b46576001600160a01b03851660009081526008602090815260408083208484529091529020546002805490919081106129c757fe5b6000918252602091829020604080516101e081018252600f93909302909101805483526001808201546001600160a01b031684860152600280830154858501526003830154606086015260048301805485516101009482161594909402600019011691909104601f81018790048702830187019094528382529394919360808601939192909190830182828015612a9f5780601f10612a7457610100808354040283529160200191612a9f565b820191906000526020600020905b815481529060010190602001808311612a8257829003601f168201915b505050918352505060058201546001600160a01b03908116602083015260068301546040830152600783015460608301526008830154811660808301526009830154811660a0830152600a8301541660c0820152600b82015460e0820152600c82015460ff161515610100820152600d820154610120820152600e90910154610140909101528251839083908110612b3357fe5b6020908102919091010152600101612971565b506001600160a01b03841660009081526009602052604090206001015460609067ffffffffffffffff81118015612b7c57600080fd5b50604051908082528060200260200182016040528015612bb657816020015b612ba3613ea6565b815260200190600190039081612b9b5790505b50905060005b6001600160a01b038616600090815260096020526040902060010154811015610e86576001600160a01b0386166000908152600960209081526040808320848452909152902054600280549091908110612c1257fe5b6000918252602091829020604080516101e081018252600f93909302909101805483526001808201546001600160a01b031684860152600280830154858501526003830154606086015260048301805485516101009482161594909402600019011691909104601f81018790048702830187019094528382529394919360808601939192909190830182828015612cea5780601f10612cbf57610100808354040283529160200191612cea565b820191906000526020600020905b815481529060010190602001808311612ccd57829003601f168201915b505050918352505060058201546001600160a01b03908116602083015260068301546040830152600783015460608301526008830154811660808301526009830154811660a0830152600a8301541660c0820152600b82015460e0820152600c82015460ff161515610100820152600d820154610120820152600e90910154610140909101528251839083908110612d7e57fe5b6020908102919091010152600101612bbc565b60606002805480602002602001604051908101604052809291908181526020016000905b82821015612f2f576000848152602090819020604080516101e081018252600f8602909201805483526001808201546001600160a01b031684860152600280830154858501526003830154606086015260048301805485516101009482161594909402600019011691909104601f81018790048702830187019094528382529394919360808601939192909190830182828015612e935780601f10612e6857610100808354040283529160200191612e93565b820191906000526020600020905b815481529060010190602001808311612e7657829003601f168201915b505050918352505060058201546001600160a01b0390811660208084019190915260068401546040840152600784015460608401526008840154821660808401526009840154821660a0840152600a84015490911660c0830152600b83015460e0830152600c83015460ff161515610100830152600d830154610120830152600e90920154610140909101529082526001929092019101612db5565b50505050905090565b600054610100900460ff1680612f515750612f51613d14565b80612f5f575060005460ff16155b612f7b5760405162461bcd60e51b81526004016119e790614682565b600054610100900460ff16158015612fa6576000805460ff1961ff0019909116610100171660011790555b81600060026101000a8154816001600160a01b0302191690836001600160a01b03160217905550600060029054906101000a90046001600160a01b03166001600160a01b031663445a21126040518163ffffffff1660e01b815260040160206040518083038186803b15801561301b57600080fd5b505afa15801561302f573d6000803e3d6000fd5b505050506040513d601f19601f82011682018060405250810190613053919061411a565b6001805473ffffffffffffffffffffffffffffffffffffffff19166001600160a01b03928316179055604051908316907f908408e307fc569b417f6cbec5d5a06f44a0a505ac0479b47d421a4b2fd6a1e690600090a280156130bb576000805461ff00191690555b5050565b6000546201000090046001600160a01b031681565b6001600160a01b0382166000818152600e6020908152604080832085845290915281205460028054929384939091908390811061310d57fe5b600091825260209091206001600f9092020101546001600160a01b03161480156131545750836002828154811061314057fe5b90600052602060002090600f020160020154145b156131645760019250905061316b565b6000925090505b9250929050565b606080825167ffffffffffffffff8111801561318d57600080fd5b506040519080825280602002602001820160405280156131c757816020015b6131b4613ea6565b8152602001906001900390816131ac5790505b50905060005b83518110156107e75760028482815181106131e457fe5b6020026020010151815481106131f657fe5b6000918252602091829020604080516101e081018252600f93909302909101805483526001808201546001600160a01b031684860152600280830154858501526003830154606086015260048301805485516101009482161594909402600019011691909104601f810187900487028301870190945283825293949193608086019391929091908301828280156132ce5780601f106132a3576101008083540402835291602001916132ce565b820191906000526020600020905b8154815290600101906020018083116132b157829003601f168201915b505050918352505060058201546001600160a01b03908116602083015260068301546040830152600783015460608301526008830154811660808301526009830154811660a0830152600a8301541660c0820152600b82015460e0820152600c82015460ff161515610100820152600d820154610120820152600e9091015461014090910152825183908390811061336257fe5b60209081029190910101526001016131cd565b6001600160a01b038084166000908152600f602090815260408083209386168084529382528083208584529091528120546002805492938493909190839081106133bb57fe5b600091825260209091206001600f9092020101546001600160a01b0316148015613402575083600282815481106133ee57fe5b90600052602060002090600f020160020154145b801561343f5750856001600160a01b03166002828154811061342057fe5b600091825260209091206008600f9092020101546001600160a01b0316145b1561344f57600192509050613456565b6000925090505b935093915050565b600c01805460ff19169055565b613473613ea6565b6002828154811061348057fe5b6000918252602091829020604080516101e081018252600f93909302909101805483526001808201546001600160a01b031684860152600280830154858501526003830154606086015260048301805485516101009482161594909402600019011691909104601f810187900487028301870190945283825293949193608086019391929091908301828280156135585780601f1061352d57610100808354040283529160200191613558565b820191906000526020600020905b81548152906001019060200180831161353b57829003601f168201915b505050918352505060058201546001600160a01b039081166020808401919091526006840154604080850191909152600785015460608501526008850154831660808501526009850154831660a0850152600a850154831660c0850152600b85015460e0850152600c85015460ff161515610100850152600d850154610120850152600e9094015461014090930192909252600154918401519251631417230560e11b8152939450169163282e460a9161361491600401614559565b60206040518083038186803b15801561362c57600080fd5b505afa158015613640573d6000803e3d6000fd5b505050506040513d601f19601f8201168201806040525081019061366491906142f8565b1515600114156136cc57613679600583613d1a565b6101008101516001600160a01b031660009081526009602052604090206136a09083613d1a565b6020808201516001600160a01b03166000908152600c909152604090206136c79083613d1a565b6130bb565b6136d7600383613d1a565b6101008101516001600160a01b031660009081526008602052604090206136fe9083613d1a565b6020808201516001600160a01b03166000908152600b909152604090206130bb9083613d1a565b60006109a883836040518060400160405280601e81526020017f536166654d6174683a207375627472616374696f6e206f766572666c6f770000815250613d6b565b6000828201838110156109a85760405162461bcd60e51b81526004016119e790614614565b600b90910155565b61379c613ea6565b604051806101e001604052808b81526020018a6000815181106137bb57fe5b60200260200101516001600160a01b03168152602001896000815181106137de57fe5b60200260200101518152602001886000815181106137f857fe5b6020026020010151815260200187878080601f0160208091040260200160405190810160405280939291908181526020018383808284376000920191909152505050908252508a516020909101908b90600190811061385357fe5b60200260200101516001600160a01b031681526020018960018151811061387657fe5b602002602001015181526020018860018151811061389057fe5b60200260200101518152602001856001600160a01b0316815260200160006001600160a01b03168152602001846001600160a01b03168152602001838152602001600115158152602001428152602001600081525090509998505050505050505050565b80516002805460018101825560009190915282517f405787fa12a823e0f2b7631cc41b3ba8828b3321ca811111fa75cd3aa3bb5ace600f9092029182019081556020808501517f405787fa12a823e0f2b7631cc41b3ba8828b3321ca811111fa75cd3aa3bb5acf8401805473ffffffffffffffffffffffffffffffffffffffff19166001600160a01b0390921691909117905560408501517f405787fa12a823e0f2b7631cc41b3ba8828b3321ca811111fa75cd3aa3bb5ad084015560608501517f405787fa12a823e0f2b7631cc41b3ba8828b3321ca811111fa75cd3aa3bb5ad1840155608085015180518694613a12937f405787fa12a823e0f2b7631cc41b3ba8828b3321ca811111fa75cd3aa3bb5ad2909101920190613f4b565b5060a082015160058201805473ffffffffffffffffffffffffffffffffffffffff199081166001600160a01b039384161790915560c0840151600684015560e08401516007808501919091556101008086015160088601805485169186169190911790556101208601516009860180548516918616919091179055610140860151600a808701805490951691861691909117909355610160860151600b860155610180860151600c8601805460ff19169115159190911790556101a0860151600d8601556101c090950151600e909401939093559285015181166000908152602092835260408082208054600181810183559184528584200187905584880180518516845295855281832080548083018255908452949092209093018590555492519151631417230560e11b815292169163282e460a91613b5591600401614559565b60206040518083038186803b158015613b6d57600080fd5b505afa158015613b81573d6000803e3d6000fd5b505050506040513d601f19601f82011682018060405250810190613ba591906142f8565b151560011415613c4a57613bba600582613d97565b6101008201516001600160a01b03166000908152600960205260409020613be19082613d97565b6020808301516001600160a01b03166000908152600c90915260409020613c089082613d97565b6101008201516001600160a01b039081166000908152600f602090815260408083208287015190941683529281528282208386015183529052208190556130bb565b613c55600382613d97565b6101008201516001600160a01b03166000908152600860205260409020613c7c9082613d97565b6020808301516001600160a01b03166000908152600b90915260409020613ca39082613d97565b6020808301516001600160a01b03166000908152600e82526040808220818601518352909252208190555050565b600c8201805460ff1916905542600e8301556009909101805473ffffffffffffffffffffffffffffffffffffffff19166001600160a01b03909216919091179055565b303b1590565b6000826001015411613d3e5760405162461bcd60e51b81526004016119e79061464b565b600080613d4b8484613dca565b909250905060018115151415613d6557613d658483613e36565b50505050565b60008184841115613d8f5760405162461bcd60e51b81526004016119e79190614601565b505050900390565b60018083018054600081815260208690526040902084905590549091613dbd9190613767565b8360010181905550505050565b6000806000846001015411613df15760405162461bcd60e51b81526004016119e79061464b565b60005b8460010154811015613e2957600081815260208690526040902054841415613e215791506001905061316b565b600101613df4565b5060009485945092505050565b80826001015411613e595760405162461bcd60e51b81526004016119e7906146df565b816001015460011415613e7257600060018301556130bb565b60018083018054600019016000908152602085905260408082205485835291205554613e9d91613725565b60018301555050565b604051806101e001604052806000815260200160006001600160a01b0316815260200160008152602001600081526020016060815260200160006001600160a01b03168152602001600081526020016000815260200160006001600160a01b0316815260200160006001600160a01b0316815260200160006001600160a01b031681526020016000815260200160001515815260200160008152602001600081525090565b828054600181600116156101000203166002900490600052602060002090601f016020900481019282601f10613f8c57805160ff1916838001178555613fb9565b82800160010185558215613fb9579182015b82811115613fb9578251825591602001919060010190613f9e565b50613fc5929150613fc9565b5090565b5b80821115613fc55760008155600101613fca565b8035611dd5816147e7565b600082601f830112613ff9578081fd5b813561400c614007826147c7565b6147a0565b81815291506020808301908481018184028601820187101561402d57600080fd5b60005b84811015614055578135614043816147e7565b84529282019290820190600101614030565b505050505092915050565b600082601f830112614070578081fd5b813561407e614007826147c7565b81815291506020808301908481018184028601820187101561409f57600080fd5b60005b84811015614055578135845292820192908201906001016140a2565b60008083601f8401126140cf578182fd5b50813567ffffffffffffffff8111156140e6578182fd5b60208301915083602082850101111561316b57600080fd5b60006020828403121561410f578081fd5b81356109a8816147e7565b60006020828403121561412b578081fd5b81516109a8816147e7565b60008060006060848603121561414a578182fd5b8335614155816147e7565b92506020840135614165816147e7565b929592945050506040919091013590565b60008060408385031215614188578182fd5b8235614193816147e7565b946020939093013593505050565b6000806000606084860312156141b5578283fd5b83356141c0816147e7565b92506020840135915060408401356141d7816147e7565b809150509250925092565b60008060008060008060008060e0898b0312156141fd578384fd5b883567ffffffffffffffff80821115614214578586fd5b6142208c838d01613fe9565b995060208b0135915080821115614235578586fd5b6142418c838d01614060565b985060408b0135915080821115614256578586fd5b6142628c838d01614060565b975060608b0135915080821115614277578586fd5b506142848b828c016140be565b909650945061429890508a60808b01613fde565b92506142a78a60a08b01613fde565b915060c089013590509295985092959890939650565b6000602082840312156142ce578081fd5b813567ffffffffffffffff8111156142e4578182fd5b6142f084828501614060565b949350505050565b600060208284031215614309578081fd5b815180151581146109a8578182fd5b600060208284031215614329578081fd5b5035919050565b60008060408385031215614342578182fd5b823591506020830135614354816147e7565b809150509250929050565b60008060408385031215614371578182fd5b50508035926020909101359150565b6001600160a01b03169052565b6000815180845260208085018081965082840281019150828601855b858110156143d35782840389526143c184835161446b565b988501989350908401906001016143a9565b5091979650505050505050565b6000815180845260208085019450808401835b8381101561440f578151875295820195908201906001016143f3565b509495945050505050565b15159052565b60008151808452815b8181101561444557602081850181015186830182015201614429565b818111156144565782602083870101525b50601f01601f19169290920160200192915050565b60006101e08251845260208301516144866020860182614380565b50604083015160408501526060830151606085015260808301518160808601526144b282860182614420565b91505060a08301516144c760a0860182614380565b5060c083015160c085015260e083015160e0850152610100808401516144ef82870182614380565b50506101208084015161450482870182614380565b50506101408084015161451982870182614380565b50506101608381015190850152610180808401516145398287018261441a565b50506101a083810151908501526101c09283015192909301919091525090565b6001600160a01b0391909116815260200190565b6000602082526109a8602083018461438d565b600060408252614593604083018561438d565b82810360208401526145a5818561438d565b95945050505050565b6000602082526109a860208301846143e0565b6000604082526145d460408301856143e0565b82810360208401526145a581856143e0565b901515815260200190565b9115158252602082015260400190565b6000602082526109a86020830184614420565b6020808252601b908201527f536166654d6174683a206164646974696f6e206f766572666c6f770000000000604082015260600190565b6020808252600f908201527f417272617920697320656d707479210000000000000000000000000000000000604082015260600190565b6020808252602e908201527f496e697469616c697a61626c653a20636f6e747261637420697320616c72656160408201527f647920696e697469616c697a6564000000000000000000000000000000000000606082015260800190565b60208082526019908201527f41727261792068617665206e6f74207468617420696e64657800000000000000604082015260600190565b6000602082526109a8602083018461446b565b90815260200190565b9586526001600160a01b039485166020870152604086019390935292166060840152608083019190915260a082015260c00190565b9687526001600160a01b03958616602088015260408701949094529184166060860152608085015260a08401521660c082015260e00190565b60405181810167ffffffffffffffff811182821017156147bf57600080fd5b604052919050565b600067ffffffffffffffff8211156147dd578081fd5b5060209081020190565b6001600160a01b03811681146147fc57600080fd5b5056fea264697066735822122032a3a7920d8d01bc99a14ac08b59b1e73d5ac2f1f325975ad73cb389d2eb974364736f6c634300060c0033",
  "linkReferences": {},
  "deployedLinkReferences": {}
}